:030000000204896E
:0C048900787FE4F6D8FD7581120204D0E3
:0906BB00010901010803010A0014
:1005F200759850758921E4F587758DFD758BFDD24F
:060602008ED2ACD2AF2243
:10061A00D2AFD2A9758921758CFE758A33D28C2204
:10060800D2AFD2ADE4F5CBF5CA85CBCD85CACCC285
:02061800CA22F4
:07000E007FF47E011205D210
:0E001500E4F50DF50EC281C280C283C28222C4
:0F062A00750D0F750E0FD281C280D283C282224E
:0F063900750D0F750E0FC281D280C283D282223F
:0F064800750D0F750E0FC281D280D283C2822230
:0F065700750D0F750E0FD281C280C283D2822221
:0E06A200E4F50DF50EC281C280C283C2822231
:0F066600750D28750E28D281C280D283C28222E0
:0F067500750D28750E28C281D280C283D28222D1
:0F068400750D28750E28C281D280D283C28222C2
:0F069300750D28750E28D281C280C283D28222B3
:0B06B000EF1FAC0670011E4C70F6221C
:0705CB007508037FC87E00E4
:1005D200D3EF9400EE6480948040147D6E7C00ED35
:0F05E2001D70011CED4C70F7EF1F70E41E80E1DF
:0105F10022E7
:07000300C2A1D2A002060811
:10051500D2A17F027E001206B0C2A130A0FDD2CAD0
:1005250020A0FDC2CAAFCDEFFEADCC7C00E42DFD11
:10053500EC3EFCE41201D18F128E118D108C0FE46C
:10054500F5CDF5CC7F1EFE1205D27F077E427DB22A
:100555007C39AB12AA11A910A80F120026E4FBFAE8
:10056500F9784012012FE4FBFA797A7844120026D3
:010575002263
:1002990012061A7508031205F2120003120515E475
:1002A900FBFA7920784112012F12020A8E0B8F0C6A
:1002B900E50A640560030203B1E508B40312D3E556
:1002C9000C9423E50B64809480400512062A801B58
:1002D900E508B4032AD3E50C9423E50B64809480E4
:1002E900501D1200157508021205CE120515E4FB02
:1002F900FA7920784112012F12020A8E0B8F0CE530
:100309000864027018D3E50C9423E50B648094808B
:10031900400B1205CB12064812000E8018E508B4EE
:100329000227D3E50C9423E50B64809480501A7559
:1003390008041205CE120515E4FBFA79207841125A
:10034900012F12020A8E0B8F0CE50864047016D374
:10035900E50C9423E50B6480948040097508037FBC
:10036900C87E008023E508640460030202A5D3E582
:100379000C9423E50B6480948040030202A51205C6
:10038900CB1206397FF47E011205D21206571200EC
:100399000E120515E4FBFA7920784112012F120299
:1003A9000A8E0B8F0C0202A5D3E50A64809484405F
:1003B900030202A5E50A602924FE601314601614DD
:1003C9006019240360030202A51206660202A5123F
:1003D90006750202A51206840202A51206930202FC
:0703E900A51206A20202A505
:03000B000203F0FD
:1003F000C0E0C0D075D000C000758CFE758A330592
:1004000009D3E5086480F8E5096480985002D28534
:10041000D3E5086480F8E509648098400BD3E509CA
:10042000648094A85002C285D3E50D6480F8E50984
:100430006480985002D290D3E50D6480F8E5096499
:100440008098400BD3E509648094A85002C290D3F1
:10045000E50E6480F8E5096480985002D291D3E5F6
:100460000E6480F8E509648098400BD3E509648048
:1004700094A85002C291D3E509648094A840037502
:090480000900D000D0D0D0E03218
:030023000205765D
:09057600C0E0C0D075D000C00740
:10057F00C2AF30983EC298C281C283C280C282AFDE
:10058F0099EF24D0602524FE6012146014146016B5
:10059F0014601D2404701C750A018017750A0280EF
:1005AF0012750A03800D750A048008750A0080030E
:0505BF00750A05D2AF32
:0705C400D007D0D0D0E032D7
:10002600EC4D6011E8497017ED33EC3304600DE4D4
:10003600FCFFFEFD22E933E8330470F80202761273
:10004600024158046009E4CC248150062850090274
:10005600028028400302027DC0E0EB4A7044B9806A
:1000660006D0E0FB02026CEF4E701CBD8008EBFF71
:10007600EAFEE9FD80EBE98DF0A4FEE5F002010F52
:10008600E9CDF9EAFEEBFFEF89F0A4FCE5F0CE89B5
:10009600F0A42EFFE435F0CD89F0A42DFEE435F072
:1000A6008067EF4E7005BD80D780C3EF8BF0A4ACA0
:1000B600F0EE8BF0A42CFCE435F0F8EF8AF0A42CDB
:1000C600E5F038FCE433CB8DF0A42CFCE5F03BF8EE
:1000D600EE8AF0A42CFCE5F038F8E433CF89F0A4DE
:1000E6002CFCE5F038CF3400CE89F0A42FFFE5F0E4
:1000F6003EFEE433C98DF0A42EFEE5F039CD8AF03C
:10010600A42FFFE5F03EFEE43DFD33D0E0FB5007B3
:100116000BBB000F020280EC2CFCEF33FFEE33FE2C
:06012600ED33FD0202585A
:10012C00020280EC5D046005E8590470030202765B
:10013C00120241580460F6EC4860F2EC7004FDFECB
:10014C00FF22C860DB2481C85009C39860025006A6
:10015C0002027D9850CAF582E9294B4A7005AB82A0
:10016C0002026C75F0007C1A7880C3EF9BEE9AED5E
:10017C0099400DC3EF9BFFEE9AFEED99FDE842F01E
:10018C00DC23ACF0D0E0FFD0E0FED0E0FDAB822071
:10019C00E7101BEB60BAEC2CFCEF33FFEE33FEEDFB
:1001AC0033FD020258E803F830E705C0F075F000A3
:1001BC00EF2FFFEE33FEED33FD40B830E7C280AADF
:1001CC0075F020800E75F010800575F0087D007EAE
:1001DC00007F003392D530D50312028BEC334010E4
:1001EC00EF33FFEE33FEED33FDEC33FCD5F0ED22B7
:0E01FC00E5F0247EA2D513CC92E7CDCEFF22F3
:10020A00EDD2E7CD33EC3392D524814006E4FFFEEC
:10021A00FDFC22FCE4CFCECDCC24E0501174FF804B
:10022A00EDC3CC13CCCD13CDCE13CECF13CF0470E8
:07023A00F030D5DE02028B5B
:10024100E9D2E7C933E833F892D5EDD2E7CD33EC03
:0702510033FC5002B2D5227C
:10025800EC30E7100FBF000C0EBE00080DBD000407
:100268000BEB6014A2D5EB13FCED92E7FD2274FFB3
:10027800FCFDFEFF22E480F8A2D574FF13FC7D800C
:03028800E480EF20
:10049500020299E493A3F8E493A34003F68001F2E2
:1004A50008DFF48029E493A3F85407240CC8C33368
:1004B500C4540F4420C8834004F456800146F6DF37
:1004C500E4800B01020408102040809006BBE47E06
:1004D500019360BCA3FF543F30E509541FFEE4932C
:1004E500A360010ECF54C025E060A840B8E493A3F3
:1004F500FAE493A3F8E493A3C8C582C8CAC583CA1E
:10050500F0A3C8C582C8CAC583CADFE9DEE780BED5
:0106C4000035
:0E028B00C3E49FFFE49EFEE49DFDE49CFC2284
:00000001FF
